{
  "transactions": [
    {
      "hash": "0x243d07e53e10e19481f599a62124e2a49db2fd4b1c74ff9a6d36f2016cb8a51e",
      "transactionType": "CALL",
      "contractName": "HelperConfig",
      "contractAddress": "0xc7f2cf4845c6db0e1a1e91ed41bcd0fcc1b0e141",
      "function": "getConfig()",
      "arguments": [],
      "transaction": {
        "from": "0x4c3c2fc121487a0647a3e5709ea4ae89a5069f1f",
        "to": "0xc7f2cf4845c6db0e1a1e91ed41bcd0fcc1b0e141",
        "gas": "0xca0f",
        "value": "0x0",
        "input": "0xc3f909d4",
        "nonce": "0x7",
        "chainId": "0xa4b1"
      },
      "additionalContracts": [],
      "isFixedGasLimit": false
    },
    {
      "hash": "0x92c4424705cf983724c1cd77b9fdd8cfd29a19fcf44ad2959dc07c80c271e734",
      "transactionType": "CALL",
      "contractName": "HelperConfig",
      "contractAddress": "0xc7f2cf4845c6db0e1a1e91ed41bcd0fcc1b0e141",
      "function": "getConfig()",
      "arguments": [],
      "transaction": {
        "from": "0x4c3c2fc121487a0647a3e5709ea4ae89a5069f1f",
        "to": "0xc7f2cf4845c6db0e1a1e91ed41bcd0fcc1b0e141",
        "gas": "0xca0f",
        "value": "0x0",
        "input": "0xc3f909d4",
        "nonce": "0x8",
        "chainId": "0xa4b1"
      },
      "additionalContracts": [],
      "isFixedGasLimit": false
    },
    {
      "hash": "0xb541bbbbf49abb46f1e5c27c2b37312b03fe7bce7af93f36041887f0b53a3e7a",
      "transactionType": "CALL",
      "contractName": null,
      "contractAddress": "0x0000000071727de22e5e9d8baf0edac6f37da032",
      "function": "handleOps((address,uint256,bytes,bytes,bytes32,uint256,bytes32,bytes,bytes)[],address)",
      "arguments": [
        "[(0xb1B8ca9d7C06B759Ba30114A7A96C8d46373d21d, 0, 0x, 0xb61d27f6000000000000000000000000af88d065e77c8cc2239327c5edb3a432268e5831000000000000000000000000000000000000000000000000000000000000000000000000000000000000000000000000000000000000000000000000000000600000000000000000000000000000000000000000000000000000000000000044095ea7b30000000000000000000000009ea9b0cc1919def1a3cfaef4f7a66ee3c36f86fc0000000000000000000000000000000000000000000000000de0b6b3a764000000000000000000000000000000000000000000000000000000000000, 0x0000000000000000000000000100000000000000000000000000000001000000, 16777216, 0x0000000000000000000000000000010000000000000000000000000000000100, 0x, 0x1eb8e3c680abd5f244687b9ac3ad490193656432295ebd0e645480e83fa34ad3585385bc1c2480c4fcba27364ead42c3a79f1e1aa661b4f303f3be32f63bc7681b)]",
        "0x4c3c2fc121487A0647A3E5709eA4ae89A5069f1f"
      ],
      "transaction": {
        "from": "0x4c3c2fc121487a0647a3e5709ea4ae89a5069f1f",
        "to": "0x0000000071727de22e5e9d8baf0edac6f37da032",
        "gas": "0x15ceca0",
        "value": "0x0",
        "input": "0x765e827f00000000000000000000000000000000000000000000000000000000000000400000000000000000000000004c3c2fc121487a0647a3e5709ea4ae89a5069f1f00000000000000000000000000000000000000000000000000000000000000010000000000000000000000000000000000000000000000000000000000000020000000000000000000000000b1b8ca9d7c06b759ba30114a7a96c8d46373d21d00000000000000000000000000000000000000000000000000000000000000000000000000000000000000000000000000000000000000000000000000000120000000000000000000000000000000000000000000000000000000000000014000000000000000000000000001000000000000000000000000000000010000000000000000000000000000000000000000000000000000000000000001000000000000000000000000000000000001000000000000000000000000000000010000000000000000000000000000000000000000000000000000000000000002600000000000000000000000000000000000000000000000000000000000000280000000000000000000000000000000000000000000000000000000000000000000000000000000000000000000000000000000000000000000000000000000e4b61d27f6000000000000000000000000af88d065e77c8cc2239327c5edb3a432268e5831000000000000000000000000000000000000000000000000000000000000000000000000000000000000000000000000000000000000000000000000000000600000000000000000000000000000000000000000000000000000000000000044095ea7b30000000000000000000000009ea9b0cc1919def1a3cfaef4f7a66ee3c36f86fc0000000000000000000000000000000000000000000000000de0b6b3a76400000000000000000000000000000000000000000000000000000000000000000000000000000000000000000000000000000000000000000000000000000000000000000000000000000000000000000000000000000000000000000000000000000000000000000000000000000000000000000000000000411eb8e3c680abd5f244687b9ac3ad490193656432295ebd0e645480e83fa34ad3585385bc1c2480c4fcba27364ead42c3a79f1e1aa661b4f303f3be32f63bc7681b00000000000000000000000000000000000000000000000000000000000000",
        "nonce": "0x9",
        "chainId": "0xa4b1"
      },
      "additionalContracts": [],
      "isFixedGasLimit": false
    }
  ],
  "receipts": [
    {
      "status": "0x1",
      "cumulativeGasUsed": "0xcb613",
      "logs": [],
      "logsBloom": "0x00000000000000000000000000000000000000000000000000000000000000000000000000000000000000000000000000000000000000000000000000000000000000000000000000000000000000000000000000000000000000000000000000000000000000000000000000000000000000000000000000000000000000000000000000000000000000000000000000000000000000000000000000000000000000000000000000000000000000000000000000000000000000000000000000000000000000000000000000000000000000000000000000000000000000000000000000000000000000000000000000000000000000000000000000000000",
      "type": "0x2",
      "transactionHash": "0x243d07e53e10e19481f599a62124e2a49db2fd4b1c74ff9a6d36f2016cb8a51e",
      "transactionIndex": "0x5",
      "blockHash": "0x5bf4c403492e8ee84a215e2e24f9053942dcc20f71530d7cf00a25966bbb262e",
      "blockNumber": "0xea35e69",
      "gasUsed": "0x8520",
      "effectiveGasPrice": "0x989680",
      "from": "0x4c3c2fc121487a0647a3e5709ea4ae89a5069f1f",
      "to": "0xc7f2cf4845c6db0e1a1e91ed41bcd0fcc1b0e141",
      "contractAddress": null,
      "gasUsedForL1": "0x32d8",
      "l1BlockNumber": "0x13a1bc0"
    },
    {
      "status": "0x1",
      "cumulativeGasUsed": "0x2694b",
      "logs": [],
      "logsBloom": "0x00000000000000000000000000000000000000000000000000000000000000000000000000000000000000000000000000000000000000000000000000000000000000000000000000000000000000000000000000000000000000000000000000000000000000000000000000000000000000000000000000000000000000000000000000000000000000000000000000000000000000000000000000000000000000000000000000000000000000000000000000000000000000000000000000000000000000000000000000000000000000000000000000000000000000000000000000000000000000000000000000000000000000000000000000000000",
      "type": "0x2",
      "transactionHash": "0x92c4424705cf983724c1cd77b9fdd8cfd29a19fcf44ad2959dc07c80c271e734",
      "transactionIndex": "0x3",
      "blockHash": "0xc90142143d6de64e0d57a22e9a2172cf09ffd4ccae8481574c90f6da2f5a2538",
      "blockNumber": "0xea35e6d",
      "gasUsed": "0x8520",
      "effectiveGasPrice": "0x989680",
      "from": "0x4c3c2fc121487a0647a3e5709ea4ae89a5069f1f",
      "to": "0xc7f2cf4845c6db0e1a1e91ed41bcd0fcc1b0e141",
      "contractAddress": null,
      "gasUsedForL1": "0x32d8",
      "l1BlockNumber": "0x13a1bc0"
    },
    {
      "status": "0x1",
      "cumulativeGasUsed": "0xb67cd",
      "logs": [
        {
          "address": "0x0000000071727de22e5e9d8baf0edac6f37da032",
          "topics": [
            "0x2da466a7b24304f47e87fa2e1e5a81b9831ce54fec19055ce277ca2f39ba42c4",
            "0x000000000000000000000000b1b8ca9d7c06b759ba30114a7a96c8d46373d21d"
          ],
          "data": "0x0000000000000000000000000000000000000000000000000000000300000000",
          "blockHash": "0xd98eefa04aa8c0046bb96cf4cd4a4b01aa07735e7e66f94a2edb2e31b09ba2b1",
          "blockNumber": "0xea35e71",
          "transactionHash": "0xb541bbbbf49abb46f1e5c27c2b37312b03fe7bce7af93f36041887f0b53a3e7a",
          "transactionIndex": "0x4",
          "logIndex": "0x10",
          "removed": false
        },
        {
          "address": "0x0000000071727de22e5e9d8baf0edac6f37da032",
          "topics": [
            "0xbb47ee3e183a558b1a2ff0874b079f3fc5478b7454eacf2bfc5af2ff5878f972"
          ],
          "data": "0x",
          "blockHash": "0xd98eefa04aa8c0046bb96cf4cd4a4b01aa07735e7e66f94a2edb2e31b09ba2b1",
          "blockNumber": "0xea35e71",
          "transactionHash": "0xb541bbbbf49abb46f1e5c27c2b37312b03fe7bce7af93f36041887f0b53a3e7a",
          "transactionIndex": "0x4",
          "logIndex": "0x11",
          "removed": false
        },
        {
          "address": "0xaf88d065e77c8cc2239327c5edb3a432268e5831",
          "topics": [
            "0x8c5be1e5ebec7d5bd14f71427d1e84f3dd0314c0f7b2291e5b200ac8c7c3b925",
            "0x000000000000000000000000b1b8ca9d7c06b759ba30114a7a96c8d46373d21d",
            "0x0000000000000000000000009ea9b0cc1919def1a3cfaef4f7a66ee3c36f86fc"
          ],
          "data": "0x0000000000000000000000000000000000000000000000000de0b6b3a7640000",
          "blockHash": "0xd98eefa04aa8c0046bb96cf4cd4a4b01aa07735e7e66f94a2edb2e31b09ba2b1",
          "blockNumber": "0xea35e71",
          "transactionHash": "0xb541bbbbf49abb46f1e5c27c2b37312b03fe7bce7af93f36041887f0b53a3e7a",
          "transactionIndex": "0x4",
          "logIndex": "0x12",
          "removed": false
        },
        {
          "address": "0x0000000071727de22e5e9d8baf0edac6f37da032",
          "topics": [
            "0x49628fd1471006c1482da88028e9ce4dbb080b815c9b0344d39e5a8e6ec1419f",
            "0x60066e2b9c19df0765a4590f4148b2a0372c59f07590aa32f44a5b43ec0e3800",
            "0x000000000000000000000000b1b8ca9d7c06b759ba30114a7a96c8d46373d21d",
            "0x0000000000000000000000000000000000000000000000000000000000000000"
          ],
          "data": "0x00000000000000000000000000000000000000000000000000000000000000000000000000000000000000000000000000000000000000000000000000000001000000000000000000000000000000000000000000000000000000011b23930000000000000000000000000000000000000000000000000000000000011b2393",
          "blockHash": "0xd98eefa04aa8c0046bb96cf4cd4a4b01aa07735e7e66f94a2edb2e31b09ba2b1",
          "blockNumber": "0xea35e71",
          "transactionHash": "0xb541bbbbf49abb46f1e5c27c2b37312b03fe7bce7af93f36041887f0b53a3e7a",
          "transactionIndex": "0x4",
          "logIndex": "0x13",
          "removed": false
        }
      ],
      "logsBloom": "0x00000000000000010000000000000000000000000000000000000000000000000008000000000000000000010000000000000001000000000000020000200000000040000000000000000000000000000040000000000000000000000000200000000000020909000000000000000800400000000000000000000000000201000000000000000000000000000000000000000000000000000000000000000000020000000000000000400000000000000000000000000000000002000000000000002000000000400001000000000000000000000004000000000000000020000050000000000000000000000000200000000000000000000000000000800000",
      "type": "0x2",
      "transactionHash": "0xb541bbbbf49abb46f1e5c27c2b37312b03fe7bce7af93f36041887f0b53a3e7a",
      "transactionIndex": "0x4",
      "blockHash": "0xd98eefa04aa8c0046bb96cf4cd4a4b01aa07735e7e66f94a2edb2e31b09ba2b1",
      "blockNumber": "0xea35e71",
      "gasUsed": "0x3201d",
      "effectiveGasPrice": "0x989680",
      "from": "0x4c3c2fc121487a0647a3e5709ea4ae89a5069f1f",
      "to": "0x0000000071727de22e5e9d8baf0edac6f37da032",
      "contractAddress": null,
      "gasUsedForL1": "0xd4ab",
      "l1BlockNumber": "0x13a1bc1"
    }
  ],
  "libraries": [],
  "pending": [],
  "returns": {},
  "timestamp": 1724344950,
  "chain": 42161,
  "commit": "983cd76"
}